{
  "_format": "hh-sol-artifact-1",
  "contractName": "YourContract",
  "sourceName": "contracts/YourContract.sol",
  "abi": [
    {
      "inputs": [],
      "stateMutability": "nonpayable",
      "type": "constructor"
    },
    {
      "anonymous": false,
      "inputs": [
        {
          "indexed": true,
          "internalType": "address",
          "name": "owner",
          "type": "address"
        },
        {
          "indexed": true,
          "internalType": "address",
          "name": "approved",
          "type": "address"
        },
        {
          "indexed": true,
          "internalType": "uint256",
          "name": "tokenId",
          "type": "uint256"
        }
      ],
      "name": "Approval",
      "type": "event"
    },
    {
      "anonymous": false,
      "inputs": [
        {
          "indexed": true,
          "internalType": "address",
          "name": "owner",
          "type": "address"
        },
        {
          "indexed": true,
          "internalType": "address",
          "name": "operator",
          "type": "address"
        },
        {
          "indexed": false,
          "internalType": "bool",
          "name": "approved",
          "type": "bool"
        }
      ],
      "name": "ApprovalForAll",
      "type": "event"
    },
    {
      "anonymous": false,
      "inputs": [
        {
          "indexed": true,
          "internalType": "address",
          "name": "previousOwner",
          "type": "address"
        },
        {
          "indexed": true,
          "internalType": "address",
          "name": "newOwner",
          "type": "address"
        }
      ],
      "name": "OwnershipTransferred",
      "type": "event"
    },
    {
      "anonymous": false,
      "inputs": [
        {
          "indexed": true,
          "internalType": "address",
          "name": "from",
          "type": "address"
        },
        {
          "indexed": true,
          "internalType": "address",
          "name": "to",
          "type": "address"
        },
        {
          "indexed": true,
          "internalType": "uint256",
          "name": "tokenId",
          "type": "uint256"
        }
      ],
      "name": "Transfer",
      "type": "event"
    },
    {
      "inputs": [
        {
          "internalType": "address",
          "name": "to",
          "type": "address"
        },
        {
          "internalType": "uint256",
          "name": "tokenId",
          "type": "uint256"
        }
      ],
      "name": "approve",
      "outputs": [],
      "stateMutability": "nonpayable",
      "type": "function"
    },
    {
      "inputs": [
        {
          "internalType": "address",
          "name": "owner",
          "type": "address"
        }
      ],
      "name": "balanceOf",
      "outputs": [
        {
          "internalType": "uint256",
          "name": "",
          "type": "uint256"
        }
      ],
      "stateMutability": "view",
      "type": "function"
    },
    {
      "inputs": [
        {
          "internalType": "uint256",
          "name": "tokenId",
          "type": "uint256"
        }
      ],
      "name": "getApproved",
      "outputs": [
        {
          "internalType": "address",
          "name": "",
          "type": "address"
        }
      ],
      "stateMutability": "view",
      "type": "function"
    },
    {
      "inputs": [
        {
          "internalType": "address",
          "name": "owner",
          "type": "address"
        },
        {
          "internalType": "address",
          "name": "operator",
          "type": "address"
        }
      ],
      "name": "isApprovedForAll",
      "outputs": [
        {
          "internalType": "bool",
          "name": "",
          "type": "bool"
        }
      ],
      "stateMutability": "view",
      "type": "function"
    },
    {
      "inputs": [],
      "name": "limit",
      "outputs": [
        {
          "internalType": "uint256",
          "name": "",
          "type": "uint256"
        }
      ],
      "stateMutability": "view",
      "type": "function"
    },
    {
      "inputs": [
        {
          "internalType": "address",
          "name": "to",
          "type": "address"
        },
        {
          "internalType": "string",
          "name": "tokenURI",
          "type": "string"
        }
      ],
      "name": "mintItem",
      "outputs": [
        {
          "internalType": "uint256",
          "name": "",
          "type": "uint256"
        }
      ],
      "stateMutability": "nonpayable",
      "type": "function"
    },
    {
      "inputs": [],
      "name": "name",
      "outputs": [
        {
          "internalType": "string",
          "name": "",
          "type": "string"
        }
      ],
      "stateMutability": "view",
      "type": "function"
    },
    {
      "inputs": [],
      "name": "owner",
      "outputs": [
        {
          "internalType": "address",
          "name": "",
          "type": "address"
        }
      ],
      "stateMutability": "view",
      "type": "function"
    },
    {
      "inputs": [
        {
          "internalType": "uint256",
          "name": "tokenId",
          "type": "uint256"
        }
      ],
      "name": "ownerOf",
      "outputs": [
        {
          "internalType": "address",
          "name": "",
          "type": "address"
        }
      ],
      "stateMutability": "view",
      "type": "function"
    },
    {
      "inputs": [],
      "name": "renounceOwnership",
      "outputs": [],
      "stateMutability": "nonpayable",
      "type": "function"
    },
    {
      "inputs": [],
      "name": "requested",
      "outputs": [
        {
          "internalType": "uint256",
          "name": "",
          "type": "uint256"
        }
      ],
      "stateMutability": "view",
      "type": "function"
    },
    {
      "inputs": [
        {
          "internalType": "address",
          "name": "from",
          "type": "address"
        },
        {
          "internalType": "address",
          "name": "to",
          "type": "address"
        },
        {
          "internalType": "uint256",
          "name": "tokenId",
          "type": "uint256"
        }
      ],
      "name": "safeTransferFrom",
      "outputs": [],
      "stateMutability": "nonpayable",
      "type": "function"
    },
    {
      "inputs": [
        {
          "internalType": "address",
          "name": "from",
          "type": "address"
        },
        {
          "internalType": "address",
          "name": "to",
          "type": "address"
        },
        {
          "internalType": "uint256",
          "name": "tokenId",
          "type": "uint256"
        },
        {
          "internalType": "bytes",
          "name": "_data",
          "type": "bytes"
        }
      ],
      "name": "safeTransferFrom",
      "outputs": [],
      "stateMutability": "nonpayable",
      "type": "function"
    },
    {
      "inputs": [
        {
          "internalType": "address",
          "name": "operator",
          "type": "address"
        },
        {
          "internalType": "bool",
          "name": "approved",
          "type": "bool"
        }
      ],
      "name": "setApprovalForAll",
      "outputs": [],
      "stateMutability": "nonpayable",
      "type": "function"
    },
    {
      "inputs": [
        {
          "internalType": "bytes4",
          "name": "interfaceId",
          "type": "bytes4"
        }
      ],
      "name": "supportsInterface",
      "outputs": [
        {
          "internalType": "bool",
          "name": "",
          "type": "bool"
        }
      ],
      "stateMutability": "view",
      "type": "function"
    },
    {
      "inputs": [],
      "name": "symbol",
      "outputs": [
        {
          "internalType": "string",
          "name": "",
          "type": "string"
        }
      ],
      "stateMutability": "view",
      "type": "function"
    },
    {
      "inputs": [
        {
          "internalType": "uint256",
          "name": "tokenId",
          "type": "uint256"
        }
      ],
      "name": "tokenURI",
      "outputs": [
        {
          "internalType": "string",
          "name": "",
          "type": "string"
        }
      ],
      "stateMutability": "view",
      "type": "function"
    },
    {
      "inputs": [
        {
          "internalType": "address",
          "name": "from",
          "type": "address"
        },
        {
          "internalType": "address",
          "name": "to",
          "type": "address"
        },
        {
          "internalType": "uint256",
          "name": "tokenId",
          "type": "uint256"
        }
      ],
      "name": "transferFrom",
      "outputs": [],
      "stateMutability": "nonpayable",
      "type": "function"
    },
    {
      "inputs": [
        {
          "internalType": "address",
          "name": "newOwner",
          "type": "address"
        }
      ],
      "name": "transferOwnership",
      "outputs": [],
      "stateMutability": "nonpayable",
      "type": "function"
    }
  ],
  "bytecode": "0x60806040523480156200001157600080fd5b50604080518082018252600c81526b165bdd5c90dbdb9d1c9858dd60a21b6020808301918252835180850190945260038452622ca1a160e91b9084015281519192916200006191600091620000f0565b50805162000077906001906020840190620000f0565b505050620000946200008e6200009a60201b60201c565b6200009e565b620001d3565b3390565b600680546001600160a01b038381166001600160a01b0319831681179093556040519116919082907f8be0079c531659141344cd1fd0a4f28419497f9722a3daafe3b4186f6b6457e090600090a35050565b828054620000fe9062000196565b90600052602060002090601f0160209004810192826200012257600085556200016d565b82601f106200013d57805160ff19168380011785556200016d565b828001600101855582156200016d579182015b828111156200016d57825182559160200191906001019062000150565b506200017b9291506200017f565b5090565b5b808211156200017b576000815560010162000180565b600181811c90821680620001ab57607f821691505b60208210811415620001cd57634e487b7160e01b600052602260045260246000fd5b50919050565b6116a680620001e36000396000f3fe608060405234801561001057600080fd5b50600436106101215760003560e01c806370a08231116100ad578063a4d66daf11610071578063a4d66daf1461024d578063b88d4fde14610255578063c87b56dd14610268578063e985e9c51461027b578063f2fde38b146102b757600080fd5b806370a0823114610206578063715018a6146102195780638da5cb5b1461022157806395d89b4114610232578063a22cb4651461023a57600080fd5b8063110bcd45116100f4578063110bcd45146101a357806323b872dd146101c45780633fae9651146101d757806342842e0e146101e05780636352211e146101f357600080fd5b806301ffc9a71461012657806306fdde031461014e578063081812fc14610163578063095ea7b31461018e575b600080fd5b61013961013436600461136c565b6102ca565b60405190151581526020015b60405180910390f35b61015661031c565b6040516101459190611454565b6101766101713660046113a4565b6103ae565b6040516001600160a01b039091168152602001610145565b6101a161019c366004611343565b610448565b005b6101b66101b13660046112e4565b61055e565b604051908152602001610145565b6101a16101d23660046111f6565b6105fe565b6101b660085481565b6101a16101ee3660046111f6565b61062f565b6101766102013660046113a4565b61064a565b6101b66102143660046111aa565b6106c1565b6101a1610748565b6006546001600160a01b0316610176565b61015661077e565b6101a16102483660046112aa565b61078d565b6101b6600581565b6101a1610263366004611231565b61079c565b6101566102763660046113a4565b6107d4565b6101396102893660046111c4565b6001600160a01b03918216600090815260056020908152604080832093909416825291909152205460ff1690565b6101a16102c53660046111aa565b6108bb565b60006001600160e01b031982166380ac58cd60e01b14806102fb57506001600160e01b03198216635b5e139f60e01b145b8061031657506301ffc9a760e01b6001600160e01b03198316145b92915050565b60606000805461032b906115ae565b80601f0160208091040260200160405190810160405280929190818152602001828054610357906115ae565b80156103a45780601f10610379576101008083540402835291602001916103a4565b820191906000526020600020905b81548152906001019060200180831161038757829003601f168201915b5050505050905090565b6000818152600260205260408120546001600160a01b031661042c5760405162461bcd60e51b815260206004820152602c60248201527f4552433732313a20617070726f76656420717565727920666f72206e6f6e657860448201526b34b9ba32b73a103a37b5b2b760a11b60648201526084015b60405180910390fd5b506000908152600460205260409020546001600160a01b031690565b60006104538261064a565b9050806001600160a01b0316836001600160a01b031614156104c15760405162461bcd60e51b815260206004820152602160248201527f4552433732313a20617070726f76616c20746f2063757272656e74206f776e656044820152603960f91b6064820152608401610423565b336001600160a01b03821614806104dd57506104dd8133610289565b61054f5760405162461bcd60e51b815260206004820152603860248201527f4552433732313a20617070726f76652063616c6c6572206973206e6f74206f7760448201527f6e6572206e6f7220617070726f76656420666f7220616c6c00000000000000006064820152608401610423565b6105598383610956565b505050565b6006546000906001600160a01b0316331461058b5760405162461bcd60e51b8152600401610423906114b9565b600561059660075490565b106105d25760405162461bcd60e51b815260206004820152600c60248201526b444f4e45204d494e54494e4760a01b6044820152606401610423565b6105e0600780546001019055565b60006105eb60075490565b90506105f784826109c4565b9392505050565b6106083382610b06565b6106245760405162461bcd60e51b8152600401610423906114ee565b610559838383610bfd565b6105598383836040518060200160405280600081525061079c565b6000818152600260205260408120546001600160a01b0316806103165760405162461bcd60e51b815260206004820152602960248201527f4552433732313a206f776e657220717565727920666f72206e6f6e657869737460448201526832b73a103a37b5b2b760b91b6064820152608401610423565b60006001600160a01b03821661072c5760405162461bcd60e51b815260206004820152602a60248201527f4552433732313a2062616c616e636520717565727920666f7220746865207a65604482015269726f206164647265737360b01b6064820152608401610423565b506001600160a01b031660009081526003602052604090205490565b6006546001600160a01b031633146107725760405162461bcd60e51b8152600401610423906114b9565b61077c6000610d9d565b565b60606001805461032b906115ae565b610798338383610def565b5050565b6107a63383610b06565b6107c25760405162461bcd60e51b8152600401610423906114ee565b6107ce84848484610ebe565b50505050565b6000818152600260205260409020546060906001600160a01b03166108535760405162461bcd60e51b815260206004820152602f60248201527f4552433732314d657461646174613a2055524920717565727920666f72206e6f60448201526e3732bc34b9ba32b73a103a37b5b2b760891b6064820152608401610423565b600061086a60408051602081019091526000815290565b9050600081511161088a57604051806020016040528060008152506105f7565b8061089484610ef1565b6040516020016108a59291906113e8565b6040516020818303038152906040529392505050565b6006546001600160a01b031633146108e55760405162461bcd60e51b8152600401610423906114b9565b6001600160a01b03811661094a5760405162461bcd60e51b815260206004820152602660248201527f4f776e61626c653a206e6577206f776e657220697320746865207a65726f206160448201526564647265737360d01b6064820152608401610423565b61095381610d9d565b50565b600081815260046020526040902080546001600160a01b0319166001600160a01b038416908117909155819061098b8261064a565b6001600160a01b03167f8c5be1e5ebec7d5bd14f71427d1e84f3dd0314c0f7b2291e5b200ac8c7c3b92560405160405180910390a45050565b6001600160a01b038216610a1a5760405162461bcd60e51b815260206004820181905260248201527f4552433732313a206d696e7420746f20746865207a65726f20616464726573736044820152606401610423565b6000818152600260205260409020546001600160a01b031615610a7f5760405162461bcd60e51b815260206004820152601c60248201527f4552433732313a20746f6b656e20616c7265616479206d696e746564000000006044820152606401610423565b6001600160a01b0382166000908152600360205260408120805460019290610aa890849061153f565b909155505060008181526002602052604080822080546001600160a01b0319166001600160a01b03861690811790915590518392907fddf252ad1be2c89b69c2b068fc378daa952ba7f163c4a11628f55a4df523b3ef908290a45050565b6000818152600260205260408120546001600160a01b0316610b7f5760405162461bcd60e51b815260206004820152602c60248201527f4552433732313a206f70657261746f7220717565727920666f72206e6f6e657860448201526b34b9ba32b73a103a37b5b2b760a11b6064820152608401610423565b6000610b8a8361064a565b9050806001600160a01b0316846001600160a01b03161480610bc55750836001600160a01b0316610bba846103ae565b6001600160a01b0316145b80610bf557506001600160a01b0380821660009081526005602090815260408083209388168352929052205460ff165b949350505050565b826001600160a01b0316610c108261064a565b6001600160a01b031614610c785760405162461bcd60e51b815260206004820152602960248201527f4552433732313a207472616e73666572206f6620746f6b656e2074686174206960448201526839903737ba1037bbb760b91b6064820152608401610423565b6001600160a01b038216610cda5760405162461bcd60e51b8152602060048201526024808201527f4552433732313a207472616e7366657220746f20746865207a65726f206164646044820152637265737360e01b6064820152608401610423565b610ce5600082610956565b6001600160a01b0383166000908152600360205260408120805460019290610d0e90849061156b565b90915550506001600160a01b0382166000908152600360205260408120805460019290610d3c90849061153f565b909155505060008181526002602052604080822080546001600160a01b0319166001600160a01b0386811691821790925591518493918716917fddf252ad1be2c89b69c2b068fc378daa952ba7f163c4a11628f55a4df523b3ef91a4505050565b600680546001600160a01b038381166001600160a01b0319831681179093556040519116919082907f8be0079c531659141344cd1fd0a4f28419497f9722a3daafe3b4186f6b6457e090600090a35050565b816001600160a01b0316836001600160a01b03161415610e515760405162461bcd60e51b815260206004820152601960248201527f4552433732313a20617070726f766520746f2063616c6c6572000000000000006044820152606401610423565b6001600160a01b03838116600081815260056020908152604080832094871680845294825291829020805460ff191686151590811790915591519182527f17307eab39ab6107e8899845ad3d59bd9653f200f220920489ca2b5937696c31910160405180910390a3505050565b610ec9848484610bfd565b610ed58484848461100b565b6107ce5760405162461bcd60e51b815260040161042390611467565b606081610f155750506040805180820190915260018152600360fc1b602082015290565b8160005b8115610f3f5780610f29816115e9565b9150610f389050600a83611557565b9150610f19565b60008167ffffffffffffffff811115610f6857634e487b7160e01b600052604160045260246000fd5b6040519080825280601f01601f191660200182016040528015610f92576020820181803683370190505b5090505b8415610bf557610fa760018361156b565b9150610fb4600a86611604565b610fbf90603061153f565b60f81b818381518110610fe257634e487b7160e01b600052603260045260246000fd5b60200101906001600160f81b031916908160001a905350611004600a86611557565b9450610f96565b60006001600160a01b0384163b1561110d57604051630a85bd0160e11b81526001600160a01b0385169063150b7a029061104f903390899088908890600401611417565b602060405180830381600087803b15801561106957600080fd5b505af1925050508015611099575060408051601f3d908101601f1916820190925261109691810190611388565b60015b6110f3573d8080156110c7576040519150601f19603f3d011682016040523d82523d6000602084013e6110cc565b606091505b5080516110eb5760405162461bcd60e51b815260040161042390611467565b805181602001fd5b6001600160e01b031916630a85bd0160e11b149050610bf5565b506001949350505050565b600067ffffffffffffffff8084111561113357611133611644565b604051601f8501601f19908116603f0116810190828211818310171561115b5761115b611644565b8160405280935085815286868601111561117457600080fd5b858560208301376000602087830101525050509392505050565b80356001600160a01b03811681146111a557600080fd5b919050565b6000602082840312156111bb578081fd5b6105f78261118e565b600080604083850312156111d6578081fd5b6111df8361118e565b91506111ed6020840161118e565b90509250929050565b60008060006060848603121561120a578081fd5b6112138461118e565b92506112216020850161118e565b9150604084013590509250925092565b60008060008060808587031215611246578081fd5b61124f8561118e565b935061125d6020860161118e565b925060408501359150606085013567ffffffffffffffff81111561127f578182fd5b8501601f8101871361128f578182fd5b61129e87823560208401611118565b91505092959194509250565b600080604083850312156112bc578182fd5b6112c58361118e565b9150602083013580151581146112d9578182fd5b809150509250929050565b600080604083850312156112f6578182fd5b6112ff8361118e565b9150602083013567ffffffffffffffff81111561131a578182fd5b8301601f8101851361132a578182fd5b61133985823560208401611118565b9150509250929050565b60008060408385031215611355578182fd5b61135e8361118e565b946020939093013593505050565b60006020828403121561137d578081fd5b81356105f78161165a565b600060208284031215611399578081fd5b81516105f78161165a565b6000602082840312156113b5578081fd5b5035919050565b600081518084526113d4816020860160208601611582565b601f01601f19169290920160200192915050565b600083516113fa818460208801611582565b83519083019061140e818360208801611582565b01949350505050565b6001600160a01b038581168252841660208201526040810183905260806060820181905260009061144a908301846113bc565b9695505050505050565b6020815260006105f760208301846113bc565b60208082526032908201527f4552433732313a207472616e7366657220746f206e6f6e20455243373231526560408201527131b2b4bb32b91034b6b83632b6b2b73a32b960711b606082015260800190565b6020808252818101527f4f776e61626c653a2063616c6c6572206973206e6f7420746865206f776e6572604082015260600190565b60208082526031908201527f4552433732313a207472616e736665722063616c6c6572206973206e6f74206f6040820152701ddb995c881b9bdc88185c1c1c9bdd9959607a1b606082015260800190565b6000821982111561155257611552611618565b500190565b6000826115665761156661162e565b500490565b60008282101561157d5761157d611618565b500390565b60005b8381101561159d578181015183820152602001611585565b838111156107ce5750506000910152565b600181811c908216806115c257607f821691505b602082108114156115e357634e487b7160e01b600052602260045260246000fd5b50919050565b60006000198214156115fd576115fd611618565b5060010190565b6000826116135761161361162e565b500690565b634e487b7160e01b600052601160045260246000fd5b634e487b7160e01b600052601260045260246000fd5b634e487b7160e01b600052604160045260246000fd5b6001600160e01b03198116811461095357600080fdfea26469706673582212209446098cabec74b3969128eb96d97c480a94ede53ccf88700b8fcfccc32e783264736f6c63430008040033",
  "linkReferences": {},
  "deployedLinkReferences": {}
}